{
  "contractName": "User",
  "abi": [
    {
      "anonymous": false,
      "inputs": [
        {
          "indexed": false,
          "internalType": "address",
          "name": "_Iduser",
          "type": "address"
        },
        {
          "indexed": false,
          "internalType": "uint256",
          "name": "index",
          "type": "uint256"
        }
      ],
      "name": "SetLogDeleteuserManagement",
      "type": "event"
    },
    {
      "anonymous": false,
      "inputs": [
        {
          "indexed": false,
          "internalType": "address",
          "name": "_Iduser",
          "type": "address"
        },
        {
          "indexed": false,
          "internalType": "string",
          "name": "_username",
          "type": "string"
        },
        {
          "indexed": false,
          "internalType": "string",
          "name": "_email",
          "type": "string"
        },
        {
          "indexed": false,
          "internalType": "string",
          "name": "_pass",
          "type": "string"
        },
        {
          "indexed": false,
          "internalType": "string",
          "name": "_gioitinh",
          "type": "string"
        },
        {
          "indexed": false,
          "internalType": "string",
          "name": "_ngaysinh",
          "type": "string"
        },
        {
          "indexed": false,
          "internalType": "string",
          "name": "_sdt",
          "type": "string"
        }
      ],
      "name": "Setuser",
      "type": "event"
    },
    {
      "anonymous": false,
      "inputs": [
        {
          "indexed": false,
          "internalType": "address",
          "name": "_Iduser",
          "type": "address"
        },
        {
          "indexed": false,
          "internalType": "string",
          "name": "_diachi",
          "type": "string"
        },
        {
          "indexed": false,
          "internalType": "string",
          "name": "_anhdaidien",
          "type": "string"
        },
        {
          "indexed": false,
          "internalType": "string",
          "name": "_thoigiantao",
          "type": "string"
        },
        {
          "indexed": false,
          "internalType": "string",
          "name": "_thoigianchinhsua",
          "type": "string"
        },
        {
          "indexed": false,
          "internalType": "string",
          "name": "_role",
          "type": "string"
        },
        {
          "indexed": false,
          "internalType": "uint256",
          "name": "_index",
          "type": "uint256"
        }
      ],
      "name": "Setuserdetail",
      "type": "event"
    },
    {
      "anonymous": false,
      "inputs": [
        {
          "indexed": false,
          "internalType": "address",
          "name": "_Iduser",
          "type": "address"
        },
        {
          "indexed": false,
          "internalType": "string",
          "name": "_username",
          "type": "string"
        },
        {
          "indexed": false,
          "internalType": "string",
          "name": "_email",
          "type": "string"
        },
        {
          "indexed": false,
          "internalType": "string",
          "name": "_pass",
          "type": "string"
        },
        {
          "indexed": false,
          "internalType": "string",
          "name": "_gioitinh",
          "type": "string"
        },
        {
          "indexed": false,
          "internalType": "string",
          "name": "_ngaysinh",
          "type": "string"
        },
        {
          "indexed": false,
          "internalType": "string",
          "name": "_sdt",
          "type": "string"
        }
      ],
      "name": "updateuser",
      "type": "event"
    },
    {
      "anonymous": false,
      "inputs": [
        {
          "indexed": false,
          "internalType": "address",
          "name": "_Iduser",
          "type": "address"
        },
        {
          "indexed": false,
          "internalType": "string",
          "name": "_diachi",
          "type": "string"
        },
        {
          "indexed": false,
          "internalType": "string",
          "name": "_anhdaidien",
          "type": "string"
        },
        {
          "indexed": false,
          "internalType": "string",
          "name": "_thoigianchinhsua",
          "type": "string"
        },
        {
          "indexed": false,
          "internalType": "string",
          "name": "_role",
          "type": "string"
        },
        {
          "indexed": false,
          "internalType": "uint256",
          "name": "index",
          "type": "uint256"
        }
      ],
      "name": "updateuserdetail",
      "type": "event"
    },
    {
      "constant": true,
      "inputs": [
        {
          "internalType": "address",
          "name": "_Iduser",
          "type": "address"
        }
      ],
      "name": "isuser",
      "outputs": [
        {
          "internalType": "bool",
          "name": "isIndeed",
          "type": "bool"
        }
      ],
      "payable": false,
      "stateMutability": "view",
      "type": "function"
    },
    {
      "constant": false,
      "inputs": [
        {
          "internalType": "address",
          "name": "_Iduser",
          "type": "address"
        },
        {
          "internalType": "string",
          "name": "_username",
          "type": "string"
        },
        {
          "internalType": "string",
          "name": "_email",
          "type": "string"
        },
        {
          "internalType": "string",
          "name": "_pass",
          "type": "string"
        },
        {
          "internalType": "string",
          "name": "_gioitinh",
          "type": "string"
        },
        {
          "internalType": "string",
          "name": "_ngaysinh",
          "type": "string"
        },
        {
          "internalType": "string",
          "name": "_sdt",
          "type": "string"
        }
      ],
      "name": "insertuser",
      "outputs": [
        {
          "internalType": "uint256",
          "name": "index",
          "type": "uint256"
        }
      ],
      "payable": false,
      "stateMutability": "nonpayable",
      "type": "function"
    },
    {
      "constant": false,
      "inputs": [
        {
          "internalType": "address",
          "name": "_Iduser",
          "type": "address"
        },
        {
          "internalType": "string",
          "name": "_diachi",
          "type": "string"
        },
        {
          "internalType": "string",
          "name": "_anhdaidien",
          "type": "string"
        },
        {
          "internalType": "string",
          "name": "_thoigiantao",
          "type": "string"
        },
        {
          "internalType": "string",
          "name": "_thoigianchinhsua",
          "type": "string"
        },
        {
          "internalType": "string",
          "name": "_role",
          "type": "string"
        }
      ],
      "name": "insertuserdetail",
      "outputs": [
        {
          "internalType": "uint256",
          "name": "index",
          "type": "uint256"
        }
      ],
      "payable": false,
      "stateMutability": "nonpayable",
      "type": "function"
    },
    {
      "constant": true,
      "inputs": [
        {
          "internalType": "address",
          "name": "_Iduser",
          "type": "address"
        }
      ],
      "name": "getuser",
      "outputs": [
        {
          "internalType": "address",
          "name": "Iduser",
          "type": "address"
        },
        {
          "internalType": "string",
          "name": "_username",
          "type": "string"
        },
        {
          "internalType": "string",
          "name": "_email",
          "type": "string"
        },
        {
          "internalType": "string",
          "name": "_pass",
          "type": "string"
        },
        {
          "internalType": "string",
          "name": "_gioitinh",
          "type": "string"
        },
        {
          "internalType": "string",
          "name": "_ngaysinh",
          "type": "string"
        },
        {
          "internalType": "string",
          "name": "_sdt",
          "type": "string"
        }
      ],
      "payable": false,
      "stateMutability": "view",
      "type": "function"
    },
    {
      "constant": true,
      "inputs": [
        {
          "internalType": "address",
          "name": "_Iduser",
          "type": "address"
        }
      ],
      "name": "getuserdetail",
      "outputs": [
        {
          "internalType": "address",
          "name": "Iduser",
          "type": "address"
        },
        {
          "internalType": "string",
          "name": "_diachi",
          "type": "string"
        },
        {
          "internalType": "string",
          "name": "_anhdaidien",
          "type": "string"
        },
        {
          "internalType": "string",
          "name": "_thoigiantao",
          "type": "string"
        },
        {
          "internalType": "string",
          "name": "_thoigianchinhsua",
          "type": "string"
        },
        {
          "internalType": "string",
          "name": "_role",
          "type": "string"
        }
      ],
      "payable": false,
      "stateMutability": "view",
      "type": "function"
    },
    {
      "constant": false,
      "inputs": [
        {
          "internalType": "address",
          "name": "_userAddress",
          "type": "address"
        }
      ],
      "name": "deleteuser",
      "outputs": [
        {
          "internalType": "uint256",
          "name": "index",
          "type": "uint256"
        }
      ],
      "payable": false,
      "stateMutability": "nonpayable",
      "type": "function"
    },
    {
      "constant": false,
      "inputs": [
        {
          "internalType": "address",
          "name": "_Iduser",
          "type": "address"
        },
        {
          "internalType": "string",
          "name": "_username",
          "type": "string"
        },
        {
          "internalType": "string",
          "name": "_thoigianchinhsua",
          "type": "string"
        }
      ],
      "name": "updateusername",
      "outputs": [
        {
          "internalType": "bool",
          "name": "success",
          "type": "bool"
        }
      ],
      "payable": false,
      "stateMutability": "nonpayable",
      "type": "function"
    },
    {
      "constant": false,
      "inputs": [
        {
          "internalType": "address",
          "name": "_Iduser",
          "type": "address"
        },
        {
          "internalType": "string",
          "name": "_email",
          "type": "string"
        },
        {
          "internalType": "string",
          "name": "_thoigianchinhsua",
          "type": "string"
        }
      ],
      "name": "updateemail",
      "outputs": [
        {
          "internalType": "bool",
          "name": "success",
          "type": "bool"
        }
      ],
      "payable": false,
      "stateMutability": "nonpayable",
      "type": "function"
    },
    {
      "constant": false,
      "inputs": [
        {
          "internalType": "address",
          "name": "_Iduser",
          "type": "address"
        },
        {
          "internalType": "string",
          "name": "_pass",
          "type": "string"
        },
        {
          "internalType": "string",
          "name": "_thoigianchinhsua",
          "type": "string"
        }
      ],
      "name": "updatepass",
      "outputs": [
        {
          "internalType": "bool",
          "name": "success",
          "type": "bool"
        }
      ],
      "payable": false,
      "stateMutability": "nonpayable",
      "type": "function"
    },
    {
      "constant": false,
      "inputs": [
        {
          "internalType": "address",
          "name": "_Iduser",
          "type": "address"
        },
        {
          "internalType": "string",
          "name": "_gioitinh",
          "type": "string"
        },
        {
          "internalType": "string",
          "name": "_thoigianchinhsua",
          "type": "string"
        }
      ],
      "name": "updategioitinh",
      "outputs": [
        {
          "internalType": "bool",
          "name": "success",
          "type": "bool"
        }
      ],
      "payable": false,
      "stateMutability": "nonpayable",
      "type": "function"
    },
    {
      "constant": false,
      "inputs": [
        {
          "internalType": "address",
          "name": "_Iduser",
          "type": "address"
        },
        {
          "internalType": "string",
          "name": "_anhdaidien",
          "type": "string"
        },
        {
          "internalType": "string",
          "name": "_thoigianchinhsua",
          "type": "string"
        }
      ],
      "name": "updateanhdaidien",
      "outputs": [
        {
          "internalType": "bool",
          "name": "success",
          "type": "bool"
        }
      ],
      "payable": false,
      "stateMutability": "nonpayable",
      "type": "function"
    },
    {
      "constant": false,
      "inputs": [
        {
          "internalType": "address",
          "name": "_Iduser",
          "type": "address"
        },
        {
          "internalType": "string",
          "name": "_diachi",
          "type": "string"
        },
        {
          "internalType": "string",
          "name": "_thoigianchinhsua",
          "type": "string"
        }
      ],
      "name": "updatediachi",
      "outputs": [
        {
          "internalType": "bool",
          "name": "success",
          "type": "bool"
        }
      ],
      "payable": false,
      "stateMutability": "nonpayable",
      "type": "function"
    },
    {
      "constant": false,
      "inputs": [
        {
          "internalType": "address",
          "name": "_Iduser",
          "type": "address"
        },
        {
          "internalType": "string",
          "name": "_sdt",
          "type": "string"
        },
        {
          "internalType": "string",
          "name": "_thoigianchinhsua",
          "type": "string"
        }
      ],
      "name": "updatesdt",
      "outputs": [
        {
          "internalType": "bool",
          "name": "success",
          "type": "bool"
        }
      ],
      "payable": false,
      "stateMutability": "nonpayable",
      "type": "function"
    },
    {
      "constant": false,
      "inputs": [
        {
          "internalType": "address",
          "name": "_Iduser",
          "type": "address"
        },
        {
          "internalType": "string",
          "name": "_role",
          "type": "string"
        },
        {
          "internalType": "string",
          "name": "_thoigianchinhsua",
          "type": "string"
        }
      ],
      "name": "updaterole",
      "outputs": [
        {
          "internalType": "bool",
          "name": "success",
          "type": "bool"
        }
      ],
      "payable": false,
      "stateMutability": "nonpayable",
      "type": "function"
    },
    {
      "constant": true,
      "inputs": [],
      "name": "getuserCount",
      "outputs": [
        {
          "internalType": "uint256",
          "name": "count",
          "type": "uint256"
        }
      ],
      "payable": false,
      "stateMutability": "view",
      "type": "function"
    },
    {
      "constant": true,
      "inputs": [
        {
          "internalType": "uint256",
          "name": "_index",
          "type": "uint256"
        }
      ],
      "name": "getuserAtIndex",
      "outputs": [
        {
          "internalType": "address",
          "name": "Iduser",
          "type": "address"
        }
      ],
      "payable": false,
      "stateMutability": "view",
      "type": "function"
    }
  ],
  "bytecode": "0x608060405234801561001057600080fd5b5061416a806100206000396000f3fe608060405234801561001057600080fd5b50600436106101005760003560e01c806375d3639311610097578063cd57187411610066578063cd57187414611331578063ce9f22371461163d578063d8a9b18014611988578063e437d5dd14611b1257610100565b806375d3639314610b07578063797b22e814610ee957806389e555dc146110735780639a019ab21461109157610100565b806358405b43116100d357806358405b43146105fb5780635bd142431461066957806361024f31146107f35780636a72b9531461097d57610100565b806301d80cd21461010557806305dcea4d1461028f57806320ce5ae4146104195780633d3830dd14610471575b600080fd5b6102756004803603606081101561011b57600080fd5b81019080803573ffffffffffffffffffffffffffffffffffffffff1690602001909291908035906020019064010000000081111561015857600080fd5b82018360208201111561016a57600080fd5b8035906020019184600183028401116401000000008311171561018c57600080fd5b91908080601f016020809104026020016040519081016040528093929190818152602001838380828437600081840152601f19601f820116905080830192505050505050509192919290803590602001906401000000008111156101ef57600080fd5b82018360208201111561020157600080fd5b8035906020019184600183028401116401000000008311171561022357600080fd5b91908080601f016020809104026020016040519081016040528093929190818152602001838380828437600081840152601f19601f820116905080830192505050505050509192919290505050611b6e565b604051808215151515815260200191505060405180910390f35b6103ff600480360360608110156102a557600080fd5b81019080803573ffffffffffffffffffffffffffffffffffffffff169060200190929190803590602001906401000000008111156102e257600080fd5b8201836020820111156102f457600080fd5b8035906020019184600183028401116401000000008311171561031657600080fd5b91908080601f016020809104026020016040519081016040528093929190818152602001838380828437600081840152601f19601f8201169050808301925050505050505091929192908035906020019064010000000081111561037957600080fd5b82018360208201111561038b57600080fd5b803590602001918460018302840111640100000000831117156103ad57600080fd5b91908080601f016020809104026020016040519081016040528093929190818152602001838380828437600081840152601f19601f820116905080830192505050505050509192919290505050611c27565b604051808215151515815260200191505060405180910390f35b61045b6004803603602081101561042f57600080fd5b81019080803573ffffffffffffffffffffffffffffffffffffffff169060200190929190505050611ce0565b6040518082815260200191505060405180910390f35b6105e16004803603606081101561048757600080fd5b81019080803573ffffffffffffffffffffffffffffffffffffffff169060200190929190803590602001906401000000008111156104c457600080fd5b8201836020820111156104d657600080fd5b803590602001918460018302840111640100000000831117156104f857600080fd5b91908080601f016020809104026020016040519081016040528093929190818152602001838380828437600081840152601f19601f8201169050808301925050505050505091929192908035906020019064010000000081111561055b57600080fd5b82018360208201111561056d57600080fd5b8035906020019184600183028401116401000000008311171561058f57600080fd5b91908080601f016020809104026020016040519081016040528093929190818152602001838380828437600081840152601f19601f820116905080830192505050505050509192919290505050612742565b604051808215151515815260200191505060405180910390f35b6106276004803603602081101561061157600080fd5b81019080803590602001909291905050506127fb565b604051808273ffffffffffffffffffffffffffffffffffffffff1673ffffffffffffffffffffffffffffffffffffffff16815260200191505060405180910390f35b6107d96004803603606081101561067f57600080fd5b81019080803573ffffffffffffffffffffffffffffffffffffffff169060200190929190803590602001906401000000008111156106bc57600080fd5b8201836020820111156106ce57600080fd5b803590602001918460018302840111640100000000831117156106f057600080fd5b91908080601f016020809104026020016040519081016040528093929190818152602001838380828437600081840152601f19601f8201169050808301925050505050505091929192908035906020019064010000000081111561075357600080fd5b82018360208201111561076557600080fd5b8035906020019184600183028401116401000000008311171561078757600080fd5b91908080601f016020809104026020016040519081016040528093929190818152602001838380828437600081840152601f19601f82011690508083019250505050505050919291929050505061283c565b604051808215151515815260200191505060405180910390f35b6109636004803603606081101561080957600080fd5b81019080803573ffffffffffffffffffffffffffffffffffffffff1690602001909291908035906020019064010000000081111561084657600080fd5b82018360208201111561085857600080fd5b8035906020019184600183028401116401000000008311171561087a57600080fd5b91908080601f016020809104026020016040519081016040528093929190818152602001838380828437600081840152601f19601f820116905080830192505050505050509192919290803590602001906401000000008111156108dd57600080fd5b8201836020820111156108ef57600080fd5b8035906020019184600183028401116401000000008311171561091157600080fd5b91908080601f016020809104026020016040519081016040528093929190818152602001838380828437600081840152601f19601f8201169050808301925050505050505091929192905050506128f5565b604051808215151515815260200191505060405180910390f35b610aed6004803603606081101561099357600080fd5b81019080803573ffffffffffffffffffffffffffffffffffffffff169060200190929190803590602001906401000000008111156109d057600080fd5b8201836020820111156109e257600080fd5b80359060200191846001830284011164010000000083111715610a0457600080fd5b91908080601f016020809104026020016040519081016040528093929190818152602001838380828437600081840152601f19601f82011690508083019250505050505050919291929080359060200190640100000000811115610a6757600080fd5b820183602082011115610a7957600080fd5b80359060200191846001830284011164010000000083111715610a9b57600080fd5b91908080601f016020809104026020016040519081016040528093929190818152602001838380828437600081840152601f19601f8201169050808301925050505050505091929192905050506129ae565b604051808215151515815260200191505060405180910390f35b610ed3600480360360e0811015610b1d57600080fd5b81019080803573ffffffffffffffffffffffffffffffffffffffff16906020019092919080359060200190640100000000811115610b5a57600080fd5b820183602082011115610b6c57600080fd5b80359060200191846001830284011164010000000083111715610b8e57600080fd5b91908080601f016020809104026020016040519081016040528093929190818152602001838380828437600081840152601f19601f82011690508083019250505050505050919291929080359060200190640100000000811115610bf157600080fd5b820183602082011115610c0357600080fd5b80359060200191846001830284011164010000000083111715610c2557600080fd5b91908080601f016020809104026020016040519081016040528093929190818152602001838380828437600081840152601f19601f82011690508083019250505050505050919291929080359060200190640100000000811115610c8857600080fd5b820183602082011115610c9a57600080fd5b80359060200191846001830284011164010000000083111715610cbc57600080fd5b91908080601f016020809104026020016040519081016040528093929190818152602001838380828437600081840152601f19601f82011690508083019250505050505050919291929080359060200190640100000000811115610d1f57600080fd5b820183602082011115610d3157600080fd5b80359060200191846001830284011164010000000083111715610d5357600080fd5b91908080601f016020809104026020016040519081016040528093929190818152602001838380828437600081840152601f19601f82011690508083019250505050505050919291929080359060200190640100000000811115610db657600080fd5b820183602082011115610dc857600080fd5b80359060200191846001830284011164010000000083111715610dea57600080fd5b91908080601f016020809104026020016040519081016040528093929190818152602001838380828437600081840152601f19601f82011690508083019250505050505050919291929080359060200190640100000000811115610e4d57600080fd5b820183602082011115610e5f57600080fd5b80359060200191846001830284011164010000000083111715610e8157600080fd5b91908080601f016020809104026020016040519081016040528093929190818152602001838380828437600081840152601f19601f820116905080830192505050505050509192919290505050612a67565b6040518082815260200191505060405180910390f35b61105960048036036060811015610eff57600080fd5b81019080803573ffffffffffffffffffffffffffffffffffffffff16906020019092919080359060200190640100000000811115610f3c57600080fd5b820183602082011115610f4e57600080fd5b80359060200191846001830284011164010000000083111715610f7057600080fd5b91908080601f016020809104026020016040519081016040528093929190818152602001838380828437600081840152601f19601f82011690508083019250505050505050919291929080359060200190640100000000811115610fd357600080fd5b820183602082011115610fe557600080fd5b8035906020019184600183028401116401000000008311171561100757600080fd5b91908080601f016020809104026020016040519081016040528093929190818152602001838380828437600081840152601f19601f820116905080830192505050505050509192919290505050612f1d565b604051808215151515815260200191505060405180910390f35b61107b612fd6565b6040518082815260200191505060405180910390f35b6110d3600480360360208110156110a757600080fd5b81019080803573ffffffffffffffffffffffffffffffffffffffff169060200190929190505050612fe3565b604051808773ffffffffffffffffffffffffffffffffffffffff1673ffffffffffffffffffffffffffffffffffffffff168152602001806020018060200180602001806020018060200186810386528b818151815260200191508051906020019080838360005b8381101561115557808201518184015260208101905061113a565b50505050905090810190601f1680156111825780820380516001836020036101000a031916815260200191505b5086810385528a818151815260200191508051906020019080838360005b838110156111bb5780820151818401526020810190506111a0565b50505050905090810190601f1680156111e85780820380516001836020036101000a031916815260200191505b50868103845289818151815260200191508051906020019080838360005b83811015611221578082015181840152602081019050611206565b50505050905090810190601f16801561124e5780820380516001836020036101000a031916815260200191505b50868103835288818151815260200191508051906020019080838360005b8381101561128757808201518184015260208101905061126c565b50505050905090810190601f1680156112b45780820380516001836020036101000a031916815260200191505b50868103825287818151815260200191508051906020019080838360005b838110156112ed5780820151818401526020810190506112d2565b50505050905090810190601f16801561131a5780820380516001836020036101000a031916815260200191505b509b50505050505050505050505060405180910390f35b6113736004803603602081101561134757600080fd5b81019080803573ffffffffffffffffffffffffffffffffffffffff169060200190929190505050613454565b604051808873ffffffffffffffffffffffffffffffffffffffff1673ffffffffffffffffffffffffffffffffffffffff16815260200180602001806020018060200180602001806020018060200187810387528d818151815260200191508051906020019080838360005b838110156113f95780820151818401526020810190506113de565b50505050905090810190601f1680156114265780820380516001836020036101000a031916815260200191505b5087810386528c818151815260200191508051906020019080838360005b8381101561145f578082015181840152602081019050611444565b50505050905090810190601f16801561148c5780820380516001836020036101000a031916815260200191505b5087810385528b818151815260200191508051906020019080838360005b838110156114c55780820151818401526020810190506114aa565b50505050905090810190601f1680156114f25780820380516001836020036101000a031916815260200191505b5087810384528a818151815260200191508051906020019080838360005b8381101561152b578082015181840152602081019050611510565b50505050905090810190601f1680156115585780820380516001836020036101000a031916815260200191505b50878103835289818151815260200191508051906020019080838360005b83811015611591578082015181840152602081019050611576565b50505050905090810190601f1680156115be5780820380516001836020036101000a031916815260200191505b50878103825288818151815260200191508051906020019080838360005b838110156115f75780820151818401526020810190506115dc565b50505050905090810190601f1680156116245780820380516001836020036101000a031916815260200191505b509d505050505050505050505050505060405180910390f35b611972600480360360c081101561165357600080fd5b81019080803573ffffffffffffffffffffffffffffffffffffffff1690602001909291908035906020019064010000000081111561169057600080fd5b8201836020820111156116a257600080fd5b803590602001918460018302840111640100000000831117156116c457600080fd5b91908080601f016020809104026020016040519081016040528093929190818152602001838380828437600081840152601f19601f8201169050808301925050505050505091929192908035906020019064010000000081111561172757600080fd5b82018360208201111561173957600080fd5b8035906020019184600183028401116401000000008311171561175b57600080fd5b91908080601f016020809104026020016040519081016040528093929190818152602001838380828437600081840152601f19601f820116905080830192505050505050509192919290803590602001906401000000008111156117be57600080fd5b8201836020820111156117d057600080fd5b803590602001918460018302840111640100000000831117156117f257600080fd5b91908080601f016020809104026020016040519081016040528093929190818152602001838380828437600081840152601f19601f8201169050808301925050505050505091929192908035906020019064010000000081111561185557600080fd5b82018360208201111561186757600080fd5b8035906020019184600183028401116401000000008311171561188957600080fd5b91908080601f016020809104026020016040519081016040528093929190818152602001838380828437600081840152601f19601f820116905080830192505050505050509192919290803590602001906401000000008111156118ec57600080fd5b8201836020820111156118fe57600080fd5b8035906020019184600183028401116401000000008311171561192057600080fd5b91908080601f016020809104026020016040519081016040528093929190818152602001838380828437600081840152601f19601f8201169050808301925050505050505091929192905050506139a7565b6040518082815260200191505060405180910390f35b611af86004803603606081101561199e57600080fd5b81019080803573ffffffffffffffffffffffffffffffffffffffff169060200190929190803590602001906401000000008111156119db57600080fd5b8201836020820111156119ed57600080fd5b80359060200191846001830284011164010000000083111715611a0f57600080fd5b91908080601f016020809104026020016040519081016040528093929190818152602001838380828437600081840152601f19601f82011690508083019250505050505050919291929080359060200190640100000000811115611a7257600080fd5b820183602082011115611a8457600080fd5b80359060200191846001830284011164010000000083111715611aa657600080fd5b91908080601f016020809104026020016040519081016040528093929190818152602001838380828437600081840152601f19601f820116905080830192505050505050509192919290505050613ee4565b604051808215151515815260200191505060405180910390f35b611b5460048036036020811015611b2857600080fd5b81019080803573ffffffffffffffffffffffffffffffffffffffff169060200190929190505050613f9d565b604051808215151515815260200191505060405180910390f35b6000826000808673ffffffffffffffffffffffffffffffffffffffff1673ffffffffffffffffffffffffffffffffffffffff168152602001908152602001600020600b019080519060200190611bc5929190614064565b50816000808673ffffffffffffffffffffffffffffffffffffffff1673ffffffffffffffffffffffffffffffffffffffff168152602001908152602001600020600a019080519060200190611c1b929190614064565b50600190509392505050565b6000826000808673ffffffffffffffffffffffffffffffffffffffff1673ffffffffffffffffffffffffffffffffffffffff1681526020019081526020016000206001019080519060200190611c7e929190614064565b50816000808673ffffffffffffffffffffffffffffffffffffffff1673ffffffffffffffffffffffffffffffffffffffff168152602001908152602001600020600a019080519060200190611cd4929190614064565b50600190509392505050565b6000806000808473ffffffffffffffffffffffffffffffffffffffff1673ffffffffffffffffffffffffffffffffffffffff168152602001908152602001600020600c01549050600060018080805490500381548110611d3c57fe5b9060005260206000200160009054906101000a900473ffffffffffffffffffffffffffffffffffffffff1690508060018381548110611d7757fe5b9060005260206000200160006101000a81548173ffffffffffffffffffffffffffffffffffffffff021916908373ffffffffffffffffffffffffffffffffffffffff160217905550816000808373ffffffffffffffffffffffffffffffffffffffff1673ffffffffffffffffffffffffffffffffffffffff168152602001908152602001600020600c01819055506001805480919060019003611e1a91906140e4565b507f22b510ac84e8f96dad67011b59e2cc3491bfe19002f18cda6ee73142e0f7be5f8483604051808373ffffffffffffffffffffffffffffffffffffffff1673ffffffffffffffffffffffffffffffffffffffff1681526020018281526020019250505060405180910390a17fd461809a291544d38fdb362614b409ee4af70034dda03be454ad73fe42bdbdb9816000808473ffffffffffffffffffffffffffffffffffffffff1673ffffffffffffffffffffffffffffffffffffffff1681526020019081526020016000206001016000808573ffffffffffffffffffffffffffffffffffffffff1673ffffffffffffffffffffffffffffffffffffffff1681526020019081526020016000206002016000808673ffffffffffffffffffffffffffffffffffffffff1673ffffffffffffffffffffffffffffffffffffffff1681526020019081526020016000206003016000808773ffffffffffffffffffffffffffffffffffffffff1673ffffffffffffffffffffffffffffffffffffffff1681526020019081526020016000206004016000808873ffffffffffffffffffffffffffffffffffffffff1673ffffffffffffffffffffffffffffffffffffffff1681526020019081526020016000206005016000808973ffffffffffffffffffffffffffffffffffffffff1673ffffffffffffffffffffffffffffffffffffffff168152602001908152602001600020600601604051808873ffffffffffffffffffffffffffffffffffffffff1673ffffffffffffffffffffffffffffffffffffffff16815260200180602001806020018060200180602001806020018060200187810387528d8181546001816001161561010002031660029004815260200191508054600181600116156101000203166002900480156120fd5780601f106120d2576101008083540402835291602001916120fd565b820191906000526020600020905b8154815290600101906020018083116120e057829003601f168201915b505087810386528c8181546001816001161561010002031660029004815260200191508054600181600116156101000203166002900480156121805780601f1061215557610100808354040283529160200191612180565b820191906000526020600020905b81548152906001019060200180831161216357829003601f168201915b505087810385528b8181546001816001161561010002031660029004815260200191508054600181600116156101000203166002900480156122035780601f106121d857610100808354040283529160200191612203565b820191906000526020600020905b8154815290600101906020018083116121e657829003601f168201915b505087810384528a8181546001816001161561010002031660029004815260200191508054600181600116156101000203166002900480156122865780601f1061225b57610100808354040283529160200191612286565b820191906000526020600020905b81548152906001019060200180831161226957829003601f168201915b50508781038352898181546001816001161561010002031660029004815260200191508054600181600116156101000203166002900480156123095780601f106122de57610100808354040283529160200191612309565b820191906000526020600020905b8154815290600101906020018083116122ec57829003601f168201915b505087810382528881815460018160011615610100020316600290048152602001915080546001816001161561010002031660029004801561238c5780601f106123615761010080835404028352916020019161238c565b820191906000526020600020905b81548152906001019060200180831161236f57829003601f168201915b50509d505050505050505050505050505060405180910390a17f601d304c3324528f8f13ac664a7c8089f87c69533e4e3f17fa31186224f79f47816000808473ffffffffffffffffffffffffffffffffffffffff1673ffffffffffffffffffffffffffffffffffffffff1681526020019081526020016000206007016000808573ffffffffffffffffffffffffffffffffffffffff1673ffffffffffffffffffffffffffffffffffffffff1681526020019081526020016000206008016000808673ffffffffffffffffffffffffffffffffffffffff1673ffffffffffffffffffffffffffffffffffffffff168152602001908152602001600020600a016000808773ffffffffffffffffffffffffffffffffffffffff1673ffffffffffffffffffffffffffffffffffffffff168152602001908152602001600020600b0187604051808773ffffffffffffffffffffffffffffffffffffffff1673ffffffffffffffffffffffffffffffffffffffff1681526020018060200180602001806020018060200186815260200185810385528a8181546001816001161561010002031660029004815260200191508054600181600116156101000203166002900480156125995780601f1061256e57610100808354040283529160200191612599565b820191906000526020600020905b81548152906001019060200180831161257c57829003601f168201915b505085810384528981815460018160011615610100020316600290048152602001915080546001816001161561010002031660029004801561261c5780601f106125f15761010080835404028352916020019161261c565b820191906000526020600020905b8154815290600101906020018083116125ff57829003601f168201915b505085810383528881815460018160011615610100020316600290048152602001915080546001816001161561010002031660029004801561269f5780601f106126745761010080835404028352916020019161269f565b820191906000526020600020905b81548152906001019060200180831161268257829003601f168201915b50508581038252878181546001816001161561010002031660029004815260200191508054600181600116156101000203166002900480156127225780601f106126f757610100808354040283529160200191612722565b820191906000526020600020905b81548152906001019060200180831161270557829003601f168201915b50509a505050505050505050505060405180910390a18192505050919050565b6000826000808673ffffffffffffffffffffffffffffffffffffffff1673ffffffffffffffffffffffffffffffffffffffff1681526020019081526020016000206002019080519060200190612799929190614064565b50816000808673ffffffffffffffffffffffffffffffffffffffff1673ffffffffffffffffffffffffffffffffffffffff168152602001908152602001600020600a0190805190602001906127ef929190614064565b50600190509392505050565b60006001828154811061280a57fe5b9060005260206000200160009054906101000a900473ffffffffffffffffffffffffffffffffffffffff169050919050565b6000826000808673ffffffffffffffffffffffffffffffffffffffff1673ffffffffffffffffffffffffffffffffffffffff1681526020019081526020016000206004019080519060200190612893929190614064565b50816000808673ffffffffffffffffffffffffffffffffffffffff1673ffffffffffffffffffffffffffffffffffffffff168152602001908152602001600020600a0190805190602001906128e9929190614064565b50600190509392505050565b6000826000808673ffffffffffffffffffffffffffffffffffffffff1673ffffffffffffffffffffffffffffffffffffffff168152602001908152602001600020600601908051906020019061294c929190614064565b50816000808673ffffffffffffffffffffffffffffffffffffffff1673ffffffffffffffffffffffffffffffffffffffff168152602001908152602001600020600a0190805190602001906129a2929190614064565b50600190509392505050565b6000826000808673ffffffffffffffffffffffffffffffffffffffff1673ffffffffffffffffffffffffffffffffffffffff1681526020019081526020016000206003019080519060200190612a05929190614064565b50816000808673ffffffffffffffffffffffffffffffffffffffff1673ffffffffffffffffffffffffffffffffffffffff168152602001908152602001600020600a019080519060200190612a5b929190614064565b50600190509392505050565b6000866000808a73ffffffffffffffffffffffffffffffffffffffff1673ffffffffffffffffffffffffffffffffffffffff1681526020019081526020016000206001019080519060200190612abe929190614064565b50856000808a73ffffffffffffffffffffffffffffffffffffffff1673ffffffffffffffffffffffffffffffffffffffff1681526020019081526020016000206002019080519060200190612b14929190614064565b50846000808a73ffffffffffffffffffffffffffffffffffffffff1673ffffffffffffffffffffffffffffffffffffffff1681526020019081526020016000206003019080519060200190612b6a929190614064565b50836000808a73ffffffffffffffffffffffffffffffffffffffff1673ffffffffffffffffffffffffffffffffffffffff1681526020019081526020016000206004019080519060200190612bc0929190614064565b50826000808a73ffffffffffffffffffffffffffffffffffffffff1673ffffffffffffffffffffffffffffffffffffffff1681526020019081526020016000206005019080519060200190612c16929190614064565b507f7202f63c32c9eee9c63fa63b3ee00c2dae1d4bee55f074a4f6b5430e62d325ae88888888888888604051808873ffffffffffffffffffffffffffffffffffffffff1673ffffffffffffffffffffffffffffffffffffffff16815260200180602001806020018060200180602001806020018060200187810387528d818151815260200191508051906020019080838360005b83811015612cc5578082015181840152602081019050612caa565b50505050905090810190601f168015612cf25780820380516001836020036101000a031916815260200191505b5087810386528c818151815260200191508051906020019080838360005b83811015612d2b578082015181840152602081019050612d10565b50505050905090810190601f168015612d585780820380516001836020036101000a031916815260200191505b5087810385528b818151815260200191508051906020019080838360005b83811015612d91578082015181840152602081019050612d76565b50505050905090810190601f168015612dbe5780820380516001836020036101000a031916815260200191505b5087810384528a818151815260200191508051906020019080838360005b83811015612df7578082015181840152602081019050612ddc565b50505050905090810190601f168015612e245780820380516001836020036101000a031916815260200191505b50878103835289818151815260200191508051906020019080838360005b83811015612e5d578082015181840152602081019050612e42565b50505050905090810190601f168015612e8a5780820380516001836020036101000a031916815260200191505b50878103825288818151815260200191508051906020019080838360005b83811015612ec3578082015181840152602081019050612ea8565b50505050905090810190601f168015612ef05780820380516001836020036101000a031916815260200191505b509d505050505050505050505050505060405180910390a160018080549050039050979650505050505050565b6000826000808673ffffffffffffffffffffffffffffffffffffffff1673ffffffffffffffffffffffffffffffffffffffff1681526020019081526020016000206008019080519060200190612f74929190614064565b50816000808673ffffffffffffffffffffffffffffffffffffffff1673ffffffffffffffffffffffffffffffffffffffff168152602001908152602001600020600a019080519060200190612fca929190614064565b50600190509392505050565b6000600180549050905090565b60006060806060806060866000808973ffffffffffffffffffffffffffffffffffffffff1673ffffffffffffffffffffffffffffffffffffffff1681526020019081526020016000206007016000808a73ffffffffffffffffffffffffffffffffffffffff1673ffffffffffffffffffffffffffffffffffffffff1681526020019081526020016000206008016000808b73ffffffffffffffffffffffffffffffffffffffff1673ffffffffffffffffffffffffffffffffffffffff1681526020019081526020016000206009016000808c73ffffffffffffffffffffffffffffffffffffffff1673ffffffffffffffffffffffffffffffffffffffff168152602001908152602001600020600a016000808d73ffffffffffffffffffffffffffffffffffffffff1673ffffffffffffffffffffffffffffffffffffffff168152602001908152602001600020600b01848054600181600116156101000203166002900480601f0160208091040260200160405190810160405280929190818152602001828054600181600116156101000203166002900480156131c85780601f1061319d576101008083540402835291602001916131c8565b820191906000526020600020905b8154815290600101906020018083116131ab57829003601f168201915b50505050509450838054600181600116156101000203166002900480601f0160208091040260200160405190810160405280929190818152602001828054600181600116156101000203166002900480156132645780601f1061323957610100808354040283529160200191613264565b820191906000526020600020905b81548152906001019060200180831161324757829003601f168201915b50505050509350828054600181600116156101000203166002900480601f0160208091040260200160405190810160405280929190818152602001828054600181600116156101000203166002900480156133005780601f106132d557610100808354040283529160200191613300565b820191906000526020600020905b8154815290600101906020018083116132e357829003601f168201915b50505050509250818054600181600116156101000203166002900480601f01602080910402602001604051908101604052809291908181526020018280546001816001161561010002031660029004801561339c5780601f106133715761010080835404028352916020019161339c565b820191906000526020600020905b81548152906001019060200180831161337f57829003601f168201915b50505050509150808054600181600116156101000203166002900480601f0160208091040260200160405190810160405280929190818152602001828054600181600116156101000203166002900480156134385780601f1061340d57610100808354040283529160200191613438565b820191906000526020600020905b81548152906001019060200180831161341b57829003601f168201915b5050505050905095509550955095509550955091939550919395565b6000606080606080606080876000808a73ffffffffffffffffffffffffffffffffffffffff1673ffffffffffffffffffffffffffffffffffffffff1681526020019081526020016000206001016000808b73ffffffffffffffffffffffffffffffffffffffff1673ffffffffffffffffffffffffffffffffffffffff1681526020019081526020016000206002016000808c73ffffffffffffffffffffffffffffffffffffffff1673ffffffffffffffffffffffffffffffffffffffff1681526020019081526020016000206003016000808d73ffffffffffffffffffffffffffffffffffffffff1673ffffffffffffffffffffffffffffffffffffffff1681526020019081526020016000206004016000808e73ffffffffffffffffffffffffffffffffffffffff1673ffffffffffffffffffffffffffffffffffffffff1681526020019081526020016000206005016000808f73ffffffffffffffffffffffffffffffffffffffff1673ffffffffffffffffffffffffffffffffffffffff168152602001908152602001600020600601858054600181600116156101000203166002900480601f01602080910402602001604051908101604052809291908181526020018280546001816001161561010002031660029004801561367b5780601f106136505761010080835404028352916020019161367b565b820191906000526020600020905b81548152906001019060200180831161365e57829003601f168201915b50505050509550848054600181600116156101000203166002900480601f0160208091040260200160405190810160405280929190818152602001828054600181600116156101000203166002900480156137175780601f106136ec57610100808354040283529160200191613717565b820191906000526020600020905b8154815290600101906020018083116136fa57829003601f168201915b50505050509450838054600181600116156101000203166002900480601f0160208091040260200160405190810160405280929190818152602001828054600181600116156101000203166002900480156137b35780601f10613788576101008083540402835291602001916137b3565b820191906000526020600020905b81548152906001019060200180831161379657829003601f168201915b50505050509350828054600181600116156101000203166002900480601f01602080910402602001604051908101604052809291908181526020018280546001816001161561010002031660029004801561384f5780601f106138245761010080835404028352916020019161384f565b820191906000526020600020905b81548152906001019060200180831161383257829003601f168201915b50505050509250818054600181600116156101000203166002900480601f0160208091040260200160405190810160405280929190818152602001828054600181600116156101000203166002900480156138eb5780601f106138c0576101008083540402835291602001916138eb565b820191906000526020600020905b8154815290600101906020018083116138ce57829003601f168201915b50505050509150808054600181600116156101000203166002900480601f0160208091040260200160405190810160405280929190818152602001828054600181600116156101000203166002900480156139875780601f1061395c57610100808354040283529160200191613987565b820191906000526020600020905b81548152906001019060200180831161396a57829003601f168201915b505050505090509650965096509650965096509650919395979092949650565b6000856000808973ffffffffffffffffffffffffffffffffffffffff1673ffffffffffffffffffffffffffffffffffffffff16815260200190815260200160002060070190805190602001906139fe929190614064565b50846000808973ffffffffffffffffffffffffffffffffffffffff1673ffffffffffffffffffffffffffffffffffffffff1681526020019081526020016000206008019080519060200190613a54929190614064565b50836000808973ffffffffffffffffffffffffffffffffffffffff1673ffffffffffffffffffffffffffffffffffffffff1681526020019081526020016000206009019080519060200190613aaa929190614064565b50826000808973ffffffffffffffffffffffffffffffffffffffff1673ffffffffffffffffffffffffffffffffffffffff168152602001908152602001600020600a019080519060200190613b00929190614064565b50816000808973ffffffffffffffffffffffffffffffffffffffff1673ffffffffffffffffffffffffffffffffffffffff168152602001908152602001600020600b019080519060200190613b56929190614064565b506001808890806001815401808255809150509060018203906000526020600020016000909192909190916101000a81548173ffffffffffffffffffffffffffffffffffffffff021916908373ffffffffffffffffffffffffffffffffffffffff160217905550036000808973ffffffffffffffffffffffffffffffffffffffff1673ffffffffffffffffffffffffffffffffffffffff168152602001908152602001600020600c01819055507fa643f95440dc37d9565aaa2c55ef4dc53f65fedfb0d2a0d8206c83f2f12fde5f8787878787876000808f73ffffffffffffffffffffffffffffffffffffffff1673ffffffffffffffffffffffffffffffffffffffff168152602001908152602001600020600c0154604051808873ffffffffffffffffffffffffffffffffffffffff1673ffffffffffffffffffffffffffffffffffffffff168152602001806020018060200180602001806020018060200187815260200186810386528c818151815260200191508051906020019080838360005b83811015613cf4578082015181840152602081019050613cd9565b50505050905090810190601f168015613d215780820380516001836020036101000a031916815260200191505b5086810385528b818151815260200191508051906020019080838360005b83811015613d5a578082015181840152602081019050613d3f565b50505050905090810190601f168015613d875780820380516001836020036101000a031916815260200191505b5086810384528a818151815260200191508051906020019080838360005b83811015613dc0578082015181840152602081019050613da5565b50505050905090810190601f168015613ded5780820380516001836020036101000a031916815260200191505b50868103835289818151815260200191508051906020019080838360005b83811015613e26578082015181840152602081019050613e0b565b50505050905090810190601f168015613e535780820380516001836020036101000a031916815260200191505b50868103825288818151815260200191508051906020019080838360005b83811015613e8c578082015181840152602081019050613e71565b50505050905090810190601f168015613eb95780820380516001836020036101000a031916815260200191505b509c5050505050505050505050505060405180910390a1600180805490500390509695505050505050565b6000826000808673ffffffffffffffffffffffffffffffffffffffff1673ffffffffffffffffffffffffffffffffffffffff1681526020019081526020016000206007019080519060200190613f3b929190614064565b50816000808673ffffffffffffffffffffffffffffffffffffffff1673ffffffffffffffffffffffffffffffffffffffff168152602001908152602001600020600a019080519060200190613f91929190614064565b50600190509392505050565b6000806001805490501415613fb5576000905061405f565b8173ffffffffffffffffffffffffffffffffffffffff1660016000808573ffffffffffffffffffffffffffffffffffffffff1673ffffffffffffffffffffffffffffffffffffffff168152602001908152602001600020600c01548154811061401a57fe5b9060005260206000200160009054906101000a900473ffffffffffffffffffffffffffffffffffffffff1673ffffffffffffffffffffffffffffffffffffffff161490505b919050565b828054600181600116156101000203166002900490600052602060002090601f016020900481019282601f106140a557805160ff19168380011785556140d3565b828001600101855582156140d3579182015b828111156140d25782518255916020019190600101906140b7565b5b5090506140e09190614110565b5090565b81548183558181111561410b5781836000526020600020918201910161410a9190614110565b5b505050565b61413291905b8082111561412e576000816000905550600101614116565b5090565b9056fea265627a7a72315820efc78b89f0f50ba130d5f6cf6b7c2b0bcd6cbe013130c44666ce6986cb444f2864736f6c634300050c0032",
  "source": "pragma solidity >=0.4.21 <0.6.0;\r\n\r\ncontract User {\r\n   //eventInsert\r\n   event Setuser(\r\n      address _Iduser,\r\n      //address _userId,\r\n      string _username,\r\n      string _email,\r\n      string _pass,\r\n      string _gioitinh,\r\n      string _ngaysinh,\r\n      string _sdt);\r\n   event Setuserdetail(\r\n      address _Iduser,\r\n      string _diachi,\r\n      string _anhdaidien,\r\n      string _thoigiantao,\r\n      string _thoigianchinhsua,\r\n      string _role,\r\n      uint256 _index\r\n   );\r\n   //update cay giong\r\n   event updateuser(\r\n      address _Iduser,\r\n      string _username,\r\n      string _email,\r\n      string _pass,\r\n      string _gioitinh,\r\n      string _ngaysinh,\r\n      string _sdt\r\n   );\r\n   event updateuserdetail(\r\n      address _Iduser,\r\n      string _diachi,\r\n      string _anhdaidien,\r\n      string _thoigianchinhsua,\r\n      string _role,\r\n      uint256 index\r\n   );\r\n    //eventDelete\r\n   event SetLogDeleteuserManagement(\r\n      address _Iduser,\r\n      uint256 index);\r\n   struct user {\r\n      address Iduser;\r\n      //address userId;\r\n      string username;\r\n      string email;\r\n      string pass;\r\n      string gioitinh;\r\n      string ngaysinh;\r\n      string sdt;\r\n      string diachi;\r\n      string anhdaidien;\r\n      string thoigiantao;\r\n      string thoigianchinhsua;\r\n      string role;\r\n      uint256 index;\r\n   }\r\n\r\n   mapping(address => user) userStructs;\r\n\r\n   address[] userIndex;\r\n\r\n   function isuser(address _Iduser) public view returns(bool isIndeed) {\r\n      if(userIndex.length == 0) return false;\r\n      return (userIndex[userStructs[_Iduser].index] == _Iduser);\r\n   }\r\n\r\n   function insertuser(\r\n      address _Iduser,\r\n      //address _userId,\r\n      string memory _username,\r\n      string memory _email,\r\n      string memory _pass,\r\n      string memory _gioitinh,\r\n      string memory _ngaysinh,\r\n      string memory _sdt\r\n      )\r\n      public returns(uint256 index){\r\n      //if(isuser(_Iduser)) revert('throw');\r\n      //userStructs[_Iduser].userId = _userId;\r\n      userStructs[_Iduser].username = _username;\r\n      userStructs[_Iduser].email = _email;\r\n      userStructs[_Iduser].pass = _pass;\r\n      userStructs[_Iduser].gioitinh = _gioitinh;\r\n      userStructs[_Iduser].ngaysinh = _ngaysinh;\r\n      emit Setuser(_Iduser,_username, _email, _pass, _gioitinh, _ngaysinh,_sdt);\r\n      // emit SetuserAdditionEvent(_Iduser, _createdTime, _modifiedTime, _idCardNo, _idCardIssuePlace);\r\n      // emit SetuserAdditionFlusEvent(\r\n      //    _Iduser,\r\n      //    _phoneNumber,\r\n      //    _job,\r\n      //    _userAddr,\r\n      //    userAdditionFlusStructs[_Iduser].index);\r\n      return userIndex.length-1;\r\n   }\r\n   function insertuserdetail(\r\n      address _Iduser,\r\n      string memory _diachi,\r\n      string memory _anhdaidien,\r\n      string memory _thoigiantao,\r\n      string memory _thoigianchinhsua,\r\n      string memory _role\r\n   ) public returns(uint256 index){\r\n      userStructs[_Iduser].diachi = _diachi;\r\n      userStructs[_Iduser].anhdaidien = _anhdaidien;\r\n      userStructs[_Iduser].thoigiantao = _thoigiantao;\r\n      userStructs[_Iduser].thoigianchinhsua = _thoigianchinhsua;\r\n      userStructs[_Iduser].role = _role;\r\n      userStructs[_Iduser].index = userIndex.push(_Iduser)-1;\r\n\r\n      emit Setuserdetail(_Iduser, _diachi, _anhdaidien, _thoigiantao, _thoigianchinhsua, _role, userStructs[_Iduser].index);\r\n      return userIndex.length-1;\r\n   }\r\n   function getuser(address _Iduser) public view returns(\r\n      address Iduser,\r\n      //address _userId,\r\n      string memory _username,\r\n      string memory _email,\r\n      string memory _pass,\r\n      string memory _gioitinh,\r\n      string memory _ngaysinh,\r\n      string memory _sdt\r\n      ){\r\n      // if(!isuser(_Iduser)) revert('throw');\r\n      return(\r\n         _Iduser,\r\n         //userStructs[_Iduser].userId,\r\n         userStructs[_Iduser].username,\r\n         userStructs[_Iduser].email,\r\n         userStructs[_Iduser].pass,\r\n         userStructs[_Iduser].gioitinh,\r\n         userStructs[_Iduser].ngaysinh,\r\n         userStructs[_Iduser].sdt\r\n         );\r\n   }\r\n   function getuserdetail(address _Iduser) public view returns(\r\n      address Iduser,\r\n      string memory _diachi,\r\n      string memory _anhdaidien,\r\n      string memory _thoigiantao,\r\n      string memory _thoigianchinhsua,\r\n      string memory _role\r\n   ) {\r\n      return( _Iduser,\r\n            userStructs[_Iduser].diachi,\r\n            userStructs[_Iduser].anhdaidien,\r\n            userStructs[_Iduser].thoigiantao,\r\n            userStructs[_Iduser].thoigianchinhsua,\r\n            userStructs[_Iduser].role\r\n      );\r\n   }\r\n   //Delete\r\n    function deleteuser(address _userAddress) public returns(uint256 index){\r\n      // if(!isuser(_userAddress)) revert('throw');\r\n      uint256 rowToDelete = userStructs[_userAddress].index;\r\n      address keyToMove = userIndex[userIndex.length-1];\r\n      userIndex[rowToDelete] = keyToMove; //vi tri can delete = vi tri cuoi ds\r\n      userStructs[keyToMove].index = rowToDelete;\r\n\r\n      userIndex.length--;\r\n      emit SetLogDeleteuserManagement(\r\n         _userAddress,\r\n         rowToDelete);\r\n\r\n      emit updateuser(\r\n         keyToMove,\r\n         //userStructs[keyToMove].userId,\r\n         userStructs[keyToMove].username,\r\n         userStructs[keyToMove].email,\r\n         userStructs[keyToMove].pass,\r\n         userStructs[keyToMove].gioitinh,\r\n         userStructs[keyToMove].ngaysinh,\r\n         userStructs[keyToMove].sdt\r\n         );\r\n      emit updateuserdetail(\r\n         keyToMove,\r\n         userStructs[keyToMove].diachi,\r\n         userStructs[keyToMove].anhdaidien,\r\n         userStructs[keyToMove].thoigianchinhsua,\r\n         userStructs[keyToMove].role,\r\n         rowToDelete);\r\n      return rowToDelete;\r\n   }\r\n\r\n   //Ham UPDATE\r\n   function updateusername(address _Iduser, string memory _username,string memory _thoigianchinhsua)\r\n   public returns(bool success){\r\n      userStructs[_Iduser].username = _username;\r\n      userStructs[_Iduser].thoigianchinhsua = _thoigianchinhsua;\r\n      return true;\r\n   }\r\n   function updateemail(address _Iduser, string memory _email, string memory _thoigianchinhsua)\r\n   public returns(bool success){\r\n      userStructs[_Iduser].email = _email;\r\n      userStructs[_Iduser].thoigianchinhsua = _thoigianchinhsua;\r\n      return true;\r\n   }\r\n\r\n   function updatepass(address _Iduser,string memory _pass, string memory _thoigianchinhsua)\r\n   public returns(bool success){\r\n      userStructs[_Iduser].pass = _pass;\r\n      userStructs[_Iduser].thoigianchinhsua = _thoigianchinhsua;\r\n      return true;\r\n   }\r\n   function updategioitinh(address _Iduser, string memory _gioitinh, string memory _thoigianchinhsua)\r\n   public returns(bool success){\r\n      userStructs[_Iduser].gioitinh = _gioitinh;\r\n      userStructs[_Iduser].thoigianchinhsua = _thoigianchinhsua;\r\n      return true;\r\n   }\r\n   function updateanhdaidien(address _Iduser, string memory _anhdaidien, string memory _thoigianchinhsua)\r\n   public returns(bool success){\r\n      userStructs[_Iduser].anhdaidien = _anhdaidien;\r\n      userStructs[_Iduser].thoigianchinhsua = _thoigianchinhsua;\r\n      return true;\r\n   }\r\n   function updatediachi(address _Iduser, string memory _diachi, string memory _thoigianchinhsua)\r\n   public returns(bool success){\r\n      userStructs[_Iduser].diachi = _diachi;\r\n      userStructs[_Iduser].thoigianchinhsua = _thoigianchinhsua;\r\n      return true;\r\n   }\r\n   function updatesdt(address _Iduser, string memory _sdt, string memory _thoigianchinhsua)\r\n   public returns(bool success){\r\n      userStructs[_Iduser].sdt = _sdt;\r\n      userStructs[_Iduser].thoigianchinhsua = _thoigianchinhsua;\r\n      return true;\r\n   }\r\n   function updaterole(address _Iduser, string memory _role, string memory _thoigianchinhsua)\r\n   public returns(bool success){\r\n      userStructs[_Iduser].role = _role;\r\n      userStructs[_Iduser].thoigianchinhsua = _thoigianchinhsua;\r\n      return true;\r\n   }\r\n   function getuserCount() public view returns(uint256 count){\r\n         return userIndex.length;\r\n      }\r\n\r\n   function getuserAtIndex(uint256 _index)\r\n      public\r\n      view\r\n      returns(address Iduser)\r\n   {\r\n      return userIndex[_index];\r\n   }\r\n\r\n}",
  "sourcePath": "C:/xampp/htdocs/blockchain/Solblockchain/contracts/user.sol",
  "compiler": {
    "name": "solc",
    "version": "0.5.12+commit.7709ece9.Emscripten.clang"
  },
  "schemaVersion": "3.0.19",
  "updatedAt": "2019-12-12T02:32:47.060Z",
  "networkType": "ethereum",
  "devdoc": {
    "methods": {}
  },
  "userdoc": {
    "methods": {}
  }
}